ACC0000001DR000000150075LOANUSD20260609Monthly loan repayment branch 22         
ACC0000002CR000000025000SAVEEUR20260609Interest credit Q2                       
ACC0000003DR000009999900WIREUSD20260609Outbound wire to vendor ACME             
ACC0000005CR000000025000RFNDEUR20260609Refund for cancelled order 8842          
